{
  "contractName": "titotoken",
  "abi": [
    {
      "constant": true,
      "inputs": [],
      "name": "totalSupply",
      "outputs": [
        {
          "name": "",
          "type": "uint256"
        }
      ],
      "payable": false,
      "stateMutability": "view",
      "type": "function"
    },
    {
      "inputs": [],
      "payable": false,
      "stateMutability": "nonpayable",
      "type": "constructor"
    }
  ],
  "bytecode": "0x608060405234801561001057600080fd5b50620f4240600081905550609e806100296000396000f300608060405260043610603f576000357c0100000000000000000000000000000000000000000000000000000000900463ffffffff16806318160ddd146044575b600080fd5b348015604f57600080fd5b506056606c565b6040518082815260200191505060405180910390f35b600054815600a165627a7a723058200b8bbe6eaba9670dc8726dd81ecc67f47957992546b3bf8ff22596ee97d982040029",
  "source": "pragma solidity ^0.4.2;\n\ncontract titotoken{\n\n    uint256 public totalSupply;\n \n    \n    function titotoken() public{\n        totalSupply=1000000;\n     \n    }\n\n}",
  "sourcePath": "/home/tito/Documents/blockchainProjects/erc20titotokens/contracts/titotoken.sol",
  "compiler": {
    "name": "solc",
    "version": "0.4.24+commit.e67f0147.Emscripten.clang"
  },
  "schemaVersion": "2.0.1",
  "updatedAt": "2018-07-10T05:32:21.657Z"
}